{
  "_format": "hh3-artifact-1",
  "contractName": "AccessLogger",
  "sourceName": "contracts/AccessLogger.sol",
  "abi": [
    {
      "anonymous": false,
      "inputs": [
        {
          "indexed": true,
          "internalType": "uint256",
          "name": "logIndex",
          "type": "uint256"
        },
        {
          "indexed": true,
          "internalType": "address",
          "name": "controller",
          "type": "address"
        },
        {
          "indexed": true,
          "internalType": "address",
          "name": "subject",
          "type": "address"
        },
        {
          "indexed": false,
          "internalType": "string",
          "name": "action",
          "type": "string"
        },
        {
          "indexed": false,
          "internalType": "bool",
          "name": "permitted",
          "type": "bool"
        },
        {
          "indexed": false,
          "internalType": "uint256",
          "name": "timestamp",
          "type": "uint256"
        }
      ],
      "name": "AccessLogged",
      "type": "event"
    },
    {
      "inputs": [
        {
          "internalType": "address",
          "name": "controller",
          "type": "address"
        }
      ],
      "name": "getControllerLogs",
      "outputs": [
        {
          "internalType": "uint256[]",
          "name": "",
          "type": "uint256[]"
        }
      ],
      "stateMutability": "view",
      "type": "function"
    },
    {
      "inputs": [
        {
          "internalType": "uint256",
          "name": "index",
          "type": "uint256"
        }
      ],
      "name": "getLog",
      "outputs": [
        {
          "internalType": "address",
          "name": "controller",
          "type": "address"
        },
        {
          "internalType": "address",
          "name": "subject",
          "type": "address"
        },
        {
          "internalType": "bytes32",
          "name": "purposeHash",
          "type": "bytes32"
        },
        {
          "internalType": "string",
          "name": "action",
          "type": "string"
        },
        {
          "internalType": "bool",
          "name": "permitted",
          "type": "bool"
        },
        {
          "internalType": "string",
          "name": "policyGroupId",
          "type": "string"
        },
        {
          "internalType": "uint256",
          "name": "policyVersion",
          "type": "uint256"
        },
        {
          "internalType": "uint256",
          "name": "timestamp",
          "type": "uint256"
        }
      ],
      "stateMutability": "view",
      "type": "function"
    },
    {
      "inputs": [],
      "name": "getLogCount",
      "outputs": [
        {
          "internalType": "uint256",
          "name": "",
          "type": "uint256"
        }
      ],
      "stateMutability": "view",
      "type": "function"
    },
    {
      "inputs": [
        {
          "internalType": "address",
          "name": "subject",
          "type": "address"
        }
      ],
      "name": "getSubjectLogs",
      "outputs": [
        {
          "internalType": "uint256[]",
          "name": "",
          "type": "uint256[]"
        }
      ],
      "stateMutability": "view",
      "type": "function"
    },
    {
      "inputs": [
        {
          "internalType": "address",
          "name": "controller",
          "type": "address"
        },
        {
          "internalType": "address",
          "name": "subject",
          "type": "address"
        },
        {
          "internalType": "bytes32",
          "name": "purposeHash",
          "type": "bytes32"
        },
        {
          "internalType": "string",
          "name": "action",
          "type": "string"
        },
        {
          "internalType": "bool",
          "name": "permitted",
          "type": "bool"
        },
        {
          "internalType": "string",
          "name": "policyGroupId",
          "type": "string"
        },
        {
          "internalType": "uint256",
          "name": "policyVersion",
          "type": "uint256"
        }
      ],
      "name": "logAccess",
      "outputs": [
        {
          "internalType": "uint256",
          "name": "",
          "type": "uint256"
        }
      ],
      "stateMutability": "nonpayable",
      "type": "function"
    },
    {
      "inputs": [
        {
          "internalType": "uint256",
          "name": "",
          "type": "uint256"
        }
      ],
      "name": "logs",
      "outputs": [
        {
          "internalType": "address",
          "name": "controller",
          "type": "address"
        },
        {
          "internalType": "address",
          "name": "subject",
          "type": "address"
        },
        {
          "internalType": "bytes32",
          "name": "purposeHash",
          "type": "bytes32"
        },
        {
          "internalType": "string",
          "name": "action",
          "type": "string"
        },
        {
          "internalType": "bool",
          "name": "permitted",
          "type": "bool"
        },
        {
          "internalType": "string",
          "name": "policyGroupId",
          "type": "string"
        },
        {
          "internalType": "uint256",
          "name": "policyVersion",
          "type": "uint256"
        },
        {
          "internalType": "uint256",
          "name": "timestamp",
          "type": "uint256"
        }
      ],
      "stateMutability": "view",
      "type": "function"
    },
    {
      "inputs": [
        {
          "internalType": "address",
          "name": "",
          "type": "address"
        },
        {
          "internalType": "uint256",
          "name": "",
          "type": "uint256"
        }
      ],
      "name": "logsByController",
      "outputs": [
        {
          "internalType": "uint256",
          "name": "",
          "type": "uint256"
        }
      ],
      "stateMutability": "view",
      "type": "function"
    },
    {
      "inputs": [
        {
          "internalType": "address",
          "name": "",
          "type": "address"
        },
        {
          "internalType": "uint256",
          "name": "",
          "type": "uint256"
        }
      ],
      "name": "logsBySubject",
      "outputs": [
        {
          "internalType": "uint256",
          "name": "",
          "type": "uint256"
        }
      ],
      "stateMutability": "view",
      "type": "function"
    }
  ],
  "bytecode": "0x6080604052348015600e575f5ffd5b50610c918061001c5f395ff3fe608060405234801561000f575f5ffd5b5060043610610085575f3560e01c8063932c4f3911610058578063932c4f39146100fd578063bed3997614610110578063c5519df314610123578063e79899bd14610136575f5ffd5b806320436dd8146100895780633206b2c6146100af578063618033db146100d65780638338405b146100dd575b5f5ffd5b61009c61009736600461083c565b610149565b6040519081526020015b60405180910390f35b6100c26100bd366004610864565b610174565b6040516100a69897969594939291906108a9565b5f5461009c565b6100f06100eb36600461090e565b6103b3565b6040516100a6919061092e565b61009c61010b366004610a0f565b61041c565b61009c61011e36600461083c565b61062b565b6100f061013136600461090e565b610644565b6100c2610144366004610864565b6106ab565b6002602052815f5260405f208181548110610162575f80fd5b905f5260205f20015f91509150505481565b5f5f5f60605f60605f5f5f8054905089106101ca5760405162461bcd60e51b8152602060048201526012602482015271131bd9c8191bd95cc81b9bdd08195e1a5cdd60721b604482015260640160405180910390fd5b5f5f8a815481106101dd576101dd610abf565b5f9182526020918290206040805161010081018252600890930290910180546001600160a01b0390811684526001820154169383019390935260028301549082015260038201805491929160608401919061023790610ad3565b80601f016020809104026020016040519081016040528092919081815260200182805461026390610ad3565b80156102ae5780601f10610285576101008083540402835291602001916102ae565b820191905f5260205f20905b81548152906001019060200180831161029157829003601f168201915b5050509183525050600482015460ff16151560208201526005820180546040909201916102da90610ad3565b80601f016020809104026020016040519081016040528092919081815260200182805461030690610ad3565b80156103515780601f1061032857610100808354040283529160200191610351565b820191905f5260205f20905b81548152906001019060200180831161033457829003601f168201915b50505050508152602001600682015481526020016007820154815250509050805f015181602001518260400151836060015184608001518560a001518660c001518760e001519850985098509850985098509850985050919395975091939597565b6001600160a01b0381165f9081526001602090815260409182902080548351818402810184019094528084526060939283018282801561041057602002820191905f5260205f20905b8154815260200190600101908083116103fc575b50505050509050919050565b60408051610100810182526001600160a01b03808a1682528881166020830190815292820188815260608301888152871515608085015260a0840187905260c084018690524260e08501525f8054600181018255818052855160089091027f290decd9548b62a8d60345a988386fc84ba6bc95484008f6362f93160ef3e563810180549287166001600160a01b031993841617815597517f290decd9548b62a8d60345a988386fc84ba6bc95484008f6362f93160ef3e564820180549190971692169190911790945591517f290decd9548b62a8d60345a988386fc84ba6bc95484008f6362f93160ef3e565840155519093839290917f290decd9548b62a8d60345a988386fc84ba6bc95484008f6362f93160ef3e566909101906105419082610b57565b50608082015160048201805460ff191691151591909117905560a0820151600582019061056e9082610b57565b5060c0820151600682015560e0909101516007909101555f805461059490600190610c12565b6001600160a01b03808c165f8181526001602081815260408084208054808501825590855282852001879055948f16808452600282528584208054938401815584529220018490559151929350909183907fb99b91a31cab68724cdaa35341c0e05eb89c1d77b1b784ae737d5c5b368ab6e890610616908c908c904290610c37565b60405180910390a49998505050505050505050565b6001602052815f5260405f208181548110610162575f80fd5b6001600160a01b0381165f9081526002602090815260409182902080548351818402810184019094528084526060939283018282801561041057602002820191905f5260205f20908154815260200190600101908083116103fc5750505050509050919050565b5f81815481106106b9575f80fd5b5f91825260209091206008909102018054600182015460028301546003840180546001600160a01b0394851696509290931693909290916106f990610ad3565b80601f016020809104026020016040519081016040528092919081815260200182805461072590610ad3565b80156107705780601f1061074757610100808354040283529160200191610770565b820191905f5260205f20905b81548152906001019060200180831161075357829003601f168201915b5050506004840154600585018054949560ff90921694919350915061079490610ad3565b80601f01602080910402602001604051908101604052809291908181526020018280546107c090610ad3565b801561080b5780601f106107e25761010080835404028352916020019161080b565b820191905f5260205f20905b8154815290600101906020018083116107ee57829003601f168201915b5050505050908060060154908060070154905088565b80356001600160a01b0381168114610837575f5ffd5b919050565b5f5f6040838503121561084d575f5ffd5b61085683610821565b946020939093013593505050565b5f60208284031215610874575f5ffd5b5035919050565b5f81518084528060208401602086015e5f602082860101526020601f19601f83011685010191505092915050565b6001600160a01b0389811682528816602082015260408101879052610100606082018190525f906108dc9083018861087b565b861515608084015282810360a08401526108f6818761087b565b60c0840195909552505060e001529695505050505050565b5f6020828403121561091e575f5ffd5b61092782610821565b9392505050565b602080825282518282018190525f918401906040840190835b81811015610965578351835260209384019390920191600101610947565b509095945050505050565b634e487b7160e01b5f52604160045260245ffd5b5f82601f830112610993575f5ffd5b813567ffffffffffffffff8111156109ad576109ad610970565b604051601f8201601f19908116603f0116810167ffffffffffffffff811182821017156109dc576109dc610970565b6040528181528382016020018510156109f3575f5ffd5b816020850160208301375f918101602001919091529392505050565b5f5f5f5f5f5f5f60e0888a031215610a25575f5ffd5b610a2e88610821565b9650610a3c60208901610821565b955060408801359450606088013567ffffffffffffffff811115610a5e575f5ffd5b610a6a8a828b01610984565b94505060808801358015158114610a7f575f5ffd5b925060a088013567ffffffffffffffff811115610a9a575f5ffd5b610aa68a828b01610984565b979a969950949793969295929450505060c09091013590565b634e487b7160e01b5f52603260045260245ffd5b600181811c90821680610ae757607f821691505b602082108103610b0557634e487b7160e01b5f52602260045260245ffd5b50919050565b601f821115610b5257805f5260205f20601f840160051c81016020851015610b305750805b601f840160051c820191505b81811015610b4f575f8155600101610b3c565b50505b505050565b815167ffffffffffffffff811115610b7157610b71610970565b610b8581610b7f8454610ad3565b84610b0b565b6020601f821160018114610bb7575f8315610ba05750848201515b5f19600385901b1c1916600184901b178455610b4f565b5f84815260208120601f198516915b82811015610be65787850151825560209485019460019092019101610bc6565b5084821015610c0357868401515f19600387901b60f8161c191681555b50505050600190811b01905550565b81810381811115610c3157634e487b7160e01b5f52601160045260245ffd5b92915050565b606081525f610c49606083018661087b565b9315156020830152506040015291905056fea2646970667358221220c9b092dbb0a221d63c9a93e3e6f91128df4cb484ec78f98a3c591acee3f762ed64736f6c634300081c0033",
  "linkReferences": {},
  "deployedLinkReferences": {},
  "immutableReferences": {},
  "inputSourceName": "project/contracts/AccessLogger.sol",
  "buildInfoId": "solc-0_8_28-dac4ece784776e650d2d41b8e55511f0876f4780"
}